:100000007590FF75B0FF75A0FF118B7590FE118B79
:100010007590FD118B7590FB118B7590F7118B7599
:1000200090EF118B7590DF118B7590BF118B7590D0
:100030007F118B7590FF75A0FE118B75A0FD118B44
:1000400075A0FB118B75A0F7118B75A0EF118B7547
:10005000A0DF118B75A0BF118B75A07F118B75A0D0
:10006000FF75B0FE118B75B0FD118B75B0FB118B58
:1000700075B0F7118B75B0EF118B75B0DF118B7503
:10008000B0BF118B75B07F118B01007F007E007DAA
:0E009000000DBD40FC0EBE40F60FBF40F0223A
:00000001FF
